:100000000C9434000C9451000C9451000C94510049
:100010000C9451000C9451000C9451000C9451001C
:100020000C9451000C9451000C9451000C9451000C
:100030000C9451000C9451000C9451000C945100FC
:100040000C9451000C9451000C9453000C945100EA
:100050000C9451000C9451000C9451000C945100DC
:100060000C9451000C94510011241FBECFEFD8E026
:10007000DEBFCDBF11E0A0E0B1E0EEE9F1E002C0EB
:1000800005900D92A630B107D9F721E0A6E0B1E0C6
:1000900001C01D92A431B207E1F70E948D000C94BB
:1000A000CD000C9400001F920F920FB60F921124F6
:1000B0002F933F934F935F936F937F938F939F9370
:1000C000AF93BF93EF93FF9380910B019091C60084
:1000D000E82FF0E0E45FFE4F90838F5F80930B0189
:1000E000853051F445E050E06CE071E086E091E04D
:1000F0000E94BE0010920B01FF91EF91BF91AF9152
:100100009F918F917F916F915F914F913F912F912F
:100110000F900FBE0F901F9018958FE384B98FEF4B
:1001200087B90E94AB00789426E031E09FEFE0E0D1
:10013000F1E0ACE0B1E0819188B98D9185B9CFE96A
:10014000DFE02197F1F700C0000015B898B9E21779
:10015000F30789F7ECCF1092C50087E68093C400BF
:10016000E2ECF0E0808186608083E1ECF0E0808169
:10017000886180838081806880830895FB01DC0131
:100180004150504048F001900D920020C9F701C045
:0E0190001D9241505040E0F70895F894FFCFC3
:06019E00FEFDFBF7EF007F
:00000001FF
